{
  "abi": [
    {
      "inputs": [
        {
          "internalType": "contract ERC20",
          "name": "_asset",
          "type": "address"
        },
        {
          "internalType": "contract ERC20",
          "name": "_reward",
          "type": "address"
        },
        {
          "internalType": "uint256",
          "name": "_rewardsPerSecond",
          "type": "uint256"
        }
      ],
      "stateMutability": "nonpayable",
      "type": "constructor"
    },
    {
      "anonymous": false,
      "inputs": [
        {
          "indexed": true,
          "internalType": "address",
          "name": "owner",
          "type": "address"
        },
        {
          "indexed": true,
          "internalType": "address",
          "name": "spender",
          "type": "address"
        },
        {
          "indexed": false,
          "internalType": "uint256",
          "name": "amount",
          "type": "uint256"
        }
      ],
      "name": "Approval",
      "type": "event"
    },
    {
      "anonymous": false,
      "inputs": [
        {
          "indexed": true,
          "internalType": "address",
          "name": "caller",
          "type": "address"
        },
        {
          "indexed": true,
          "internalType": "address",
          "name": "owner",
          "type": "address"
        },
        {
          "indexed": false,
          "internalType": "uint256",
          "name": "assets",
          "type": "uint256"
        },
        {
          "indexed": false,
          "internalType": "uint256",
          "name": "shares",
          "type": "uint256"
        }
      ],
      "name": "Deposit",
      "type": "event"
    },
    {
      "anonymous": false,
      "inputs": [
        {
          "indexed": true,
          "internalType": "address",
          "name": "owner",
          "type": "address"
        },
        {
          "indexed": false,
          "internalType": "uint256",
          "name": "assets",
          "type": "uint256"
        }
      ],
      "name": "EmergencyWithdraw",
      "type": "event"
    },
    {
      "anonymous": false,
      "inputs": [
        {
          "indexed": true,
          "internalType": "address",
          "name": "from",
          "type": "address"
        },
        {
          "indexed": true,
          "internalType": "address",
          "name": "to",
          "type": "address"
        },
        {
          "indexed": false,
          "internalType": "uint256",
          "name": "amount",
          "type": "uint256"
        }
      ],
      "name": "Transfer",
      "type": "event"
    },
    {
      "anonymous": false,
      "inputs": [],
      "name": "Update",
      "type": "event"
    },
    {
      "anonymous": false,
      "inputs": [
        {
          "indexed": true,
          "internalType": "address",
          "name": "caller",
          "type": "address"
        },
        {
          "indexed": true,
          "internalType": "address",
          "name": "receiver",
          "type": "address"
        },
        {
          "indexed": true,
          "internalType": "address",
          "name": "owner",
          "type": "address"
        },
        {
          "indexed": false,
          "internalType": "uint256",
          "name": "assets",
          "type": "uint256"
        },
        {
          "indexed": false,
          "internalType": "uint256",
          "name": "shares",
          "type": "uint256"
        }
      ],
      "name": "Withdraw",
      "type": "event"
    },
    {
      "inputs": [],
      "name": "DOMAIN_SEPARATOR",
      "outputs": [
        {
          "internalType": "bytes32",
          "name": "",
          "type": "bytes32"
        }
      ],
      "stateMutability": "view",
      "type": "function"
    },
    {
      "inputs": [],
      "name": "accRewardsPerShare",
      "outputs": [
        {
          "internalType": "uint256",
          "name": "",
          "type": "uint256"
        }
      ],
      "stateMutability": "view",
      "type": "function"
    },
    {
      "inputs": [
        {
          "internalType": "address",
          "name": "",
          "type": "address"
        },
        {
          "internalType": "address",
          "name": "",
          "type": "address"
        }
      ],
      "name": "allowance",
      "outputs": [
        {
          "internalType": "uint256",
          "name": "",
          "type": "uint256"
        }
      ],
      "stateMutability": "view",
      "type": "function"
    },
    {
      "inputs": [
        {
          "internalType": "address",
          "name": "spender",
          "type": "address"
        },
        {
          "internalType": "uint256",
          "name": "amount",
          "type": "uint256"
        }
      ],
      "name": "approve",
      "outputs": [
        {
          "internalType": "bool",
          "name": "",
          "type": "bool"
        }
      ],
      "stateMutability": "nonpayable",
      "type": "function"
    },
    {
      "inputs": [],
      "name": "asset",
      "outputs": [
        {
          "internalType": "contract ERC20",
          "name": "",
          "type": "address"
        }
      ],
      "stateMutability": "view",
      "type": "function"
    },
    {
      "inputs": [
        {
          "internalType": "address",
          "name": "",
          "type": "address"
        }
      ],
      "name": "balanceOf",
      "outputs": [
        {
          "internalType": "uint256",
          "name": "",
          "type": "uint256"
        }
      ],
      "stateMutability": "view",
      "type": "function"
    },
    {
      "inputs": [
        {
          "internalType": "uint256",
          "name": "shares",
          "type": "uint256"
        }
      ],
      "name": "convertToAssets",
      "outputs": [
        {
          "internalType": "uint256",
          "name": "",
          "type": "uint256"
        }
      ],
      "stateMutability": "view",
      "type": "function"
    },
    {
      "inputs": [
        {
          "internalType": "uint256",
          "name": "assets",
          "type": "uint256"
        }
      ],
      "name": "convertToShares",
      "outputs": [
        {
          "internalType": "uint256",
          "name": "",
          "type": "uint256"
        }
      ],
      "stateMutability": "view",
      "type": "function"
    },
    {
      "inputs": [],
      "name": "decimals",
      "outputs": [
        {
          "internalType": "uint8",
          "name": "",
          "type": "uint8"
        }
      ],
      "stateMutability": "view",
      "type": "function"
    },
    {
      "inputs": [
        {
          "internalType": "uint256",
          "name": "assets",
          "type": "uint256"
        },
        {
          "internalType": "address",
          "name": "receiver",
          "type": "address"
        }
      ],
      "name": "deposit",
      "outputs": [
        {
          "internalType": "uint256",
          "name": "shares",
          "type": "uint256"
        }
      ],
      "stateMutability": "nonpayable",
      "type": "function"
    },
    {
      "inputs": [],
      "name": "lastRewardTime",
      "outputs": [
        {
          "internalType": "uint256",
          "name": "",
          "type": "uint256"
        }
      ],
      "stateMutability": "view",
      "type": "function"
    },
    {
      "inputs": [
        {
          "internalType": "address",
          "name": "",
          "type": "address"
        }
      ],
      "name": "maxDeposit",
      "outputs": [
        {
          "internalType": "uint256",
          "name": "",
          "type": "uint256"
        }
      ],
      "stateMutability": "view",
      "type": "function"
    },
    {
      "inputs": [
        {
          "internalType": "address",
          "name": "",
          "type": "address"
        }
      ],
      "name": "maxMint",
      "outputs": [
        {
          "internalType": "uint256",
          "name": "",
          "type": "uint256"
        }
      ],
      "stateMutability": "view",
      "type": "function"
    },
    {
      "inputs": [
        {
          "internalType": "address",
          "name": "owner",
          "type": "address"
        }
      ],
      "name": "maxRedeem",
      "outputs": [
        {
          "internalType": "uint256",
          "name": "",
          "type": "uint256"
        }
      ],
      "stateMutability": "view",
      "type": "function"
    },
    {
      "inputs": [
        {
          "internalType": "address",
          "name": "owner",
          "type": "address"
        }
      ],
      "name": "maxWithdraw",
      "outputs": [
        {
          "internalType": "uint256",
          "name": "",
          "type": "uint256"
        }
      ],
      "stateMutability": "view",
      "type": "function"
    },
    {
      "inputs": [
        {
          "internalType": "uint256",
          "name": "shares",
          "type": "uint256"
        },
        {
          "internalType": "address",
          "name": "receiver",
          "type": "address"
        }
      ],
      "name": "mint",
      "outputs": [
        {
          "internalType": "uint256",
          "name": "assets",
          "type": "uint256"
        }
      ],
      "stateMutability": "nonpayable",
      "type": "function"
    },
    {
      "inputs": [],
      "name": "name",
      "outputs": [
        {
          "internalType": "string",
          "name": "",
          "type": "string"
        }
      ],
      "stateMutability": "view",
      "type": "function"
    },
    {
      "inputs": [
        {
          "internalType": "address",
          "name": "",
          "type": "address"
        }
      ],
      "name": "nonces",
      "outputs": [
        {
          "internalType": "uint256",
          "name": "",
          "type": "uint256"
        }
      ],
      "stateMutability": "view",
      "type": "function"
    },
    {
      "inputs": [
        {
          "internalType": "address",
          "name": "_user",
          "type": "address"
        }
      ],
      "name": "pendingReward",
      "outputs": [
        {
          "internalType": "uint256",
          "name": "",
          "type": "uint256"
        }
      ],
      "stateMutability": "view",
      "type": "function"
    },
    {
      "inputs": [
        {
          "internalType": "address",
          "name": "owner",
          "type": "address"
        },
        {
          "internalType": "address",
          "name": "spender",
          "type": "address"
        },
        {
          "internalType": "uint256",
          "name": "value",
          "type": "uint256"
        },
        {
          "internalType": "uint256",
          "name": "deadline",
          "type": "uint256"
        },
        {
          "internalType": "uint8",
          "name": "v",
          "type": "uint8"
        },
        {
          "internalType": "bytes32",
          "name": "r",
          "type": "bytes32"
        },
        {
          "internalType": "bytes32",
          "name": "s",
          "type": "bytes32"
        }
      ],
      "name": "permit",
      "outputs": [],
      "stateMutability": "nonpayable",
      "type": "function"
    },
    {
      "inputs": [
        {
          "internalType": "uint256",
          "name": "assets",
          "type": "uint256"
        }
      ],
      "name": "previewDeposit",
      "outputs": [
        {
          "internalType": "uint256",
          "name": "",
          "type": "uint256"
        }
      ],
      "stateMutability": "view",
      "type": "function"
    },
    {
      "inputs": [
        {
          "internalType": "uint256",
          "name": "shares",
          "type": "uint256"
        }
      ],
      "name": "previewMint",
      "outputs": [
        {
          "internalType": "uint256",
          "name": "",
          "type": "uint256"
        }
      ],
      "stateMutability": "view",
      "type": "function"
    },
    {
      "inputs": [
        {
          "internalType": "uint256",
          "name": "shares",
          "type": "uint256"
        }
      ],
      "name": "previewRedeem",
      "outputs": [
        {
          "internalType": "uint256",
          "name": "",
          "type": "uint256"
        }
      ],
      "stateMutability": "view",
      "type": "function"
    },
    {
      "inputs": [
        {
          "internalType": "uint256",
          "name": "assets",
          "type": "uint256"
        }
      ],
      "name": "previewWithdraw",
      "outputs": [
        {
          "internalType": "uint256",
          "name": "",
          "type": "uint256"
        }
      ],
      "stateMutability": "view",
      "type": "function"
    },
    {
      "inputs": [
        {
          "internalType": "uint256",
          "name": "shares",
          "type": "uint256"
        },
        {
          "internalType": "address",
          "name": "receiver",
          "type": "address"
        },
        {
          "internalType": "address",
          "name": "owner",
          "type": "address"
        }
      ],
      "name": "redeem",
      "outputs": [
        {
          "internalType": "uint256",
          "name": "assets",
          "type": "uint256"
        }
      ],
      "stateMutability": "nonpayable",
      "type": "function"
    },
    {
      "inputs": [],
      "name": "reward",
      "outputs": [
        {
          "internalType": "contract ERC20",
          "name": "",
          "type": "address"
        }
      ],
      "stateMutability": "view",
      "type": "function"
    },
    {
      "inputs": [
        {
          "internalType": "address",
          "name": "",
          "type": "address"
        }
      ],
      "name": "rewardCreditsOf",
      "outputs": [
        {
          "internalType": "uint256",
          "name": "",
          "type": "uint256"
        }
      ],
      "stateMutability": "view",
      "type": "function"
    },
    {
      "inputs": [
        {
          "internalType": "address",
          "name": "",
          "type": "address"
        }
      ],
      "name": "rewardDebtOf",
      "outputs": [
        {
          "internalType": "uint256",
          "name": "",
          "type": "uint256"
        }
      ],
      "stateMutability": "view",
      "type": "function"
    },
    {
      "inputs": [],
      "name": "rewardsPerSecond",
      "outputs": [
        {
          "internalType": "uint256",
          "name": "",
          "type": "uint256"
        }
      ],
      "stateMutability": "view",
      "type": "function"
    },
    {
      "inputs": [],
      "name": "symbol",
      "outputs": [
        {
          "internalType": "string",
          "name": "",
          "type": "string"
        }
      ],
      "stateMutability": "view",
      "type": "function"
    },
    {
      "inputs": [],
      "name": "totalAssets",
      "outputs": [
        {
          "internalType": "uint256",
          "name": "",
          "type": "uint256"
        }
      ],
      "stateMutability": "view",
      "type": "function"
    },
    {
      "inputs": [],
      "name": "totalSupply",
      "outputs": [
        {
          "internalType": "uint256",
          "name": "",
          "type": "uint256"
        }
      ],
      "stateMutability": "view",
      "type": "function"
    },
    {
      "inputs": [
        {
          "internalType": "address",
          "name": "to",
          "type": "address"
        },
        {
          "internalType": "uint256",
          "name": "amount",
          "type": "uint256"
        }
      ],
      "name": "transfer",
      "outputs": [
        {
          "internalType": "bool",
          "name": "",
          "type": "bool"
        }
      ],
      "stateMutability": "nonpayable",
      "type": "function"
    },
    {
      "inputs": [
        {
          "internalType": "address",
          "name": "from",
          "type": "address"
        },
        {
          "internalType": "address",
          "name": "to",
          "type": "address"
        },
        {
          "internalType": "uint256",
          "name": "amount",
          "type": "uint256"
        }
      ],
      "name": "transferFrom",
      "outputs": [
        {
          "internalType": "bool",
          "name": "",
          "type": "bool"
        }
      ],
      "stateMutability": "nonpayable",
      "type": "function"
    },
    {
      "inputs": [],
      "name": "updatePool",
      "outputs": [
        {
          "internalType": "uint256",
          "name": "rewardsPerShare",
          "type": "uint256"
        }
      ],
      "stateMutability": "nonpayable",
      "type": "function"
    },
    {
      "inputs": [
        {
          "internalType": "uint256",
          "name": "assets",
          "type": "uint256"
        },
        {
          "internalType": "address",
          "name": "receiver",
          "type": "address"
        },
        {
          "internalType": "address",
          "name": "owner",
          "type": "address"
        }
      ],
      "name": "withdraw",
      "outputs": [
        {
          "internalType": "uint256",
          "name": "shares",
          "type": "uint256"
        }
      ],
      "stateMutability": "nonpayable",
      "type": "function"
    }
  ],
  "bytecode": {
    "object": "0x610100604052426009553480156200001657600080fd5b5060405162001b9338038062001b938339810160408190526200003991620002b4565b8260405180602001604052806000815250604051806020016040528060008152508181846001600160a01b031663313ce5676040518163ffffffff1660e01b8152600401602060405180830381865afa1580156200009b573d6000803e3d6000fd5b505050506040513d601f19601f82011682018060405250810190620000c19190620002f5565b8251620000d6906000906020860190620001f1565b508151620000ec906001906020850190620001f1565b5060ff81166080524660a0526200010262000155565b60c0525050506001600160a01b0392831660e052505083811690831614156200012a57600080fd5b600680546001600160a01b0319166001600160a01b0393909316929092179091556008555062000402565b60007f8b73c3c69bb8fe3d512ecc4cf759cc79239f7b179b0ffacaa9a75d522b39400f60006040516200018991906200035e565b6040805191829003822060208301939093528101919091527fc89efdaa54c0f20c7adf612882df0950f5a951637e0307cdcb4c672f298b8bc660608201524660808201523060a082015260c00160405160208183030381529060405280519060200120905090565b828054620001ff9062000321565b90600052602060002090601f0160209004810192826200022357600085556200026e565b82601f106200023e57805160ff19168380011785556200026e565b828001600101855582156200026e579182015b828111156200026e57825182559160200191906001019062000251565b506200027c92915062000280565b5090565b5b808211156200027c576000815560010162000281565b80516001600160a01b0381168114620002af57600080fd5b919050565b600080600060608486031215620002ca57600080fd5b620002d58462000297565b9250620002e56020850162000297565b9150604084015190509250925092565b6000602082840312156200030857600080fd5b815160ff811681146200031a57600080fd5b9392505050565b600181811c908216806200033657607f821691505b602082108114156200035857634e487b7160e01b600052602260045260246000fd5b50919050565b600080835481600182811c9150808316806200037b57607f831692505b60208084108214156200039c57634e487b7160e01b86526022600452602486fd5b818015620003b35760018114620003c557620003f4565b60ff19861689528489019650620003f4565b60008a81526020902060005b86811015620003ec5781548b820152908501908301620003d1565b505084890196505b509498975050505050505050565b60805160a05160c05160e0516117346200045f6000396000818161030e015281816107a901528181610a5c01528181610d4501528181610f4c0152611251015260006106e1015260006106ac015260006102cd01526117346000f3fe608060405234801561001057600080fd5b506004361061021c5760003560e01c80639231cf7411610125578063ce96cb77116100ad578063e3161ddd1161007c578063e3161ddd14610487578063eacdaabc1461048f578063ef8b30f71461024d578063f40f0f5214610498578063fb3cee26146104ab57600080fd5b8063ce96cb771461041e578063d505accf14610447578063d905777e1461041e578063dd62ed3e1461045c57600080fd5b8063b3d7f6b9116100f4578063b3d7f6b91461024d578063b460af94146103f8578063ba0876521461040b578063c63d75b614610330578063c6e6f5921461024d57600080fd5b80639231cf74146103c157806394bf804d146103ca57806395d89b41146103dd578063a9059cbb146103e557600080fd5b80633644e515116101a85780634cdad506116101775780634cdad5061461024d5780636e553f651461036557806370a08231146103785780637cbaccd5146103985780637ecebe00146103a157600080fd5b80633644e5151461030157806338d52e0f14610309578063402d267d146103305780634bb2be741461034557600080fd5b80630a28a477116101ef5780630a28a4771461024d57806318160ddd14610281578063228cb7331461028a57806323b872dd146102b5578063313ce567146102c857600080fd5b806301e1d1141461022157806306fdde031461023857806307a2d13a1461024d578063095ea7b31461025e575b600080fd5b6002545b6040519081526020015b60405180910390f35b6102406104cb565b60405161022f9190611358565b61022561025b3660046113ad565b90565b61027161026c3660046113e2565b610559565b604051901515815260200161022f565b61022560025481565b60065461029d906001600160a01b031681565b6040516001600160a01b03909116815260200161022f565b6102716102c336600461140c565b6105c6565b6102ef7f000000000000000000000000000000000000000000000000000000000000000081565b60405160ff909116815260200161022f565b6102256106a8565b61029d7f000000000000000000000000000000000000000000000000000000000000000081565b61022561033e366004611448565b5060001990565b610225610353366004611448565b600a6020526000908152604090205481565b610225610373366004611463565b610703565b610225610386366004611448565b60036020526000908152604090205481565b61022560075481565b6102256103af366004611448565b60056020526000908152604090205481565b61022560095481565b6102256103d8366004611463565b6107a3565b61024061082f565b6102716103f33660046113e2565b61083c565b61022561040636600461148f565b6108a2565b61022561041936600461148f565b610948565b61022561042c366004611448565b6001600160a01b031660009081526003602052604090205490565b61045a6104553660046114cb565b610a83565b005b61022561046a36600461153e565b600460209081526000928352604080842090915290825290205481565b610225610cc7565b61022560085481565b6102256104a6366004611448565b610d27565b6102256104b9366004611448565b600b6020526000908152604090205481565b600080546104d890611568565b80601f016020809104026020016040519081016040528092919081815260200182805461050490611568565b80156105515780601f1061052657610100808354040283529160200191610551565b820191906000526020600020905b81548152906001019060200180831161053457829003601f168201915b505050505081565b3360008181526004602090815260408083206001600160a01b038716808552925280832085905551919290917f8c5be1e5ebec7d5bd14f71427d1e84f3dd0314c0f7b2291e5b200ac8c7c3b925906105b49086815260200190565b60405180910390a35060015b92915050565b6001600160a01b03831660009081526004602090815260408083203384529091528120546000198114610622576105fd83826115b9565b6001600160a01b03861660009081526004602090815260408083203384529091529020555b6001600160a01b0385166000908152600360205260408120805485929061064a9084906115b9565b90915550506001600160a01b03808516600081815260036020526040908190208054870190555190918716906000805160206116df833981519152906106939087815260200190565b60405180910390a360019150505b9392505050565b60007f000000000000000000000000000000000000000000000000000000000000000046146106de576106d9610e69565b905090565b507f000000000000000000000000000000000000000000000000000000000000000090565b60008061070e610cc7565b3360009081526003602052604090205490915061072b8585610f03565b9250801561076b57336000908152600a6020526040812054610753838564e8d4a51000610fc1565b61075d91906115b9565b90506107693382610fe0565b505b61077d8582018364e8d4a51000610fc1565b336000818152600a602052604090209190915561079b908587611011565b505092915050565b816107d97f00000000000000000000000000000000000000000000000000000000000000006001600160a01b031633308461109c565b6107e38284611126565b60408051828152602081018590526001600160a01b0384169133917fdcbc1c05240f31ff3ad067ef1ee35ce4997762752e3a095284754544f4c709d791015b60405180910390a36105c0565b600180546104d890611568565b3360009081526003602052604081208054839190839061085d9084906115b9565b90915550506001600160a01b038316600081815260036020526040908190208054850190555133906000805160206116df833981519152906105b49086815260200190565b6000806108ad610cc7565b6001600160a01b038416600090815260036020908152604080832054600a909252822054929350916108e5838564e8d4a51000610fc1565b6108ef91906115b9565b90506109038483038464e8d4a51000610fc1565b6001600160a01b0386166000908152600a60205260409020556109268582610fe0565b610931878787611180565b935061093e338789611011565b5050509392505050565b6000336001600160a01b038316146109b8576001600160a01b038216600090815260046020908152604080832033845290915290205460001981146109b65761099185826115b9565b6001600160a01b03841660009081526004602090815260408083203384529091529020555b505b5082806109fa5760405162461bcd60e51b815260206004820152600b60248201526a5a45524f5f41535345545360a81b60448201526064015b60405180910390fd5b610a048285611278565b60408051828152602081018690526001600160a01b03808516929086169133917ffbde797d201c681b91056529119e0b02407c7bb96a4a2c75c01fc9667232c8db910160405180910390a46106a16001600160a01b037f00000000000000000000000000000000000000000000000000000000000000001684836112da565b42841015610ad35760405162461bcd60e51b815260206004820152601760248201527f5045524d49545f444541444c494e455f4558504952454400000000000000000060448201526064016109f1565b60006001610adf6106a8565b6001600160a01b038a811660008181526005602090815260409182902080546001810190915582517f6e71edae12b1b97f4d1f60370fef10105fa2faae0126114a169c64845d6126c98184015280840194909452938d166060840152608083018c905260a083019390935260c08083018b90528151808403909101815260e08301909152805192019190912061190160f01b6101008301526101028201929092526101228101919091526101420160408051601f198184030181528282528051602091820120600084529083018083525260ff871690820152606081018590526080810184905260a0016020604051602081039080840390855afa158015610beb573d6000803e3d6000fd5b5050604051601f1901519150506001600160a01b03811615801590610c215750876001600160a01b0316816001600160a01b0316145b610c5e5760405162461bcd60e51b815260206004820152600e60248201526d24a72b20a624a22fa9a4a3a722a960911b60448201526064016109f1565b6001600160a01b0390811660009081526004602090815260408083208a8516808552908352928190208990555188815291928a16917f8c5be1e5ebec7d5bd14f71427d1e84f3dd0314c0f7b2291e5b200ac8c7c3b925910160405180910390a350505050505050565b60006009544211610cd9575060075490565b60025480610ced5750504260095560075490565b8064e8d4a51000600854610d0191906115d0565b610d0b91906115ef565b600754610d189190611611565b60078190554260095592915050565b6007546040516370a0823160e01b81523060048201526000919082907f00000000000000000000000000000000000000000000000000000000000000006001600160a01b0316906370a0823190602401602060405180830381865afa158015610d94573d6000803e3d6000fd5b505050506040513d601f19601f82011682018060405250810190610db89190611629565b905060095443118015610dca57508015155b15610e1657600060085460095442610de291906115b9565b610dec91906115d0565b905081610dfe64e8d4a51000836115d0565b610e0891906115ef565b610e129084611611565b9250505b6001600160a01b0384166000908152600a602090815260408083205460039092529091205464e8d4a5100090610e4d9085906115d0565b610e5791906115ef565b610e6191906115b9565b949350505050565b60007f8b73c3c69bb8fe3d512ecc4cf759cc79239f7b179b0ffacaa9a75d522b39400f6000604051610e9b9190611642565b6040805191829003822060208301939093528101919091527fc89efdaa54c0f20c7adf612882df0950f5a951637e0307cdcb4c672f298b8bc660608201524660808201523060a082015260c00160405160208183030381529060405280519060200120905090565b8180610f3f5760405162461bcd60e51b815260206004820152600b60248201526a5a45524f5f53484152455360a81b60448201526064016109f1565b610f746001600160a01b037f00000000000000000000000000000000000000000000000000000000000000001633308661109c565b610f7e8282611126565b60408051848152602081018390526001600160a01b0384169133917fdcbc1c05240f31ff3ad067ef1ee35ce4997762752e3a095284754544f4c709d79101610822565b828202811515841585830485141716610fd957600080fd5b0492915050565b6001600160a01b0382166000908152600b602052604081208054839290611008908490611611565b90915550505050565b816001600160a01b0316836001600160a01b031614611097576001600160a01b0383166000908152600a6020908152604080832054600390925282205490919061105e9084908490610fc1565b905061106a81836115b9565b6001600160a01b038087166000908152600a60205260408082209390935590861681522080549091019055505b505050565b60006040516323b872dd60e01b81528460048201528360248201528260448201526020600060648360008a5af13d15601f3d116001600051141617169150508061111f5760405162461bcd60e51b81526020600482015260146024820152731514905394d1915497d19493d357d1905253115160621b60448201526064016109f1565b5050505050565b80600260008282546111389190611611565b90915550506001600160a01b0382166000818152600360209081526040808320805486019055518481526000805160206116df83398151915291015b60405180910390a35050565b826001600160a01b03821633146111ef576001600160a01b038216600090815260046020908152604080832033845290915290205460001981146111ed576111c882826115b9565b6001600160a01b03841660009081526004602090815260408083203384529091529020555b505b6111f98282611278565b60408051858152602081018390526001600160a01b03808516929086169133917ffbde797d201c681b91056529119e0b02407c7bb96a4a2c75c01fc9667232c8db910160405180910390a46106a16001600160a01b037f00000000000000000000000000000000000000000000000000000000000000001684866112da565b6001600160a01b038216600090815260036020526040812080548392906112a09084906115b9565b90915550506002805482900390556040518181526000906001600160a01b038416906000805160206116df83398151915290602001611174565b600060405163a9059cbb60e01b8152836004820152826024820152602060006044836000895af13d15601f3d11600160005114161716915050806113525760405162461bcd60e51b815260206004820152600f60248201526e1514905394d1915497d19052531151608a1b60448201526064016109f1565b50505050565b600060208083528351808285015260005b8181101561138557858101830151858201604001528201611369565b81811115611397576000604083870101525b50601f01601f1916929092016040019392505050565b6000602082840312156113bf57600080fd5b5035919050565b80356001600160a01b03811681146113dd57600080fd5b919050565b600080604083850312156113f557600080fd5b6113fe836113c6565b946020939093013593505050565b60008060006060848603121561142157600080fd5b61142a846113c6565b9250611438602085016113c6565b9150604084013590509250925092565b60006020828403121561145a57600080fd5b6106a1826113c6565b6000806040838503121561147657600080fd5b82359150611486602084016113c6565b90509250929050565b6000806000606084860312156114a457600080fd5b833592506114b4602085016113c6565b91506114c2604085016113c6565b90509250925092565b600080600080600080600060e0888a0312156114e657600080fd5b6114ef886113c6565b96506114fd602089016113c6565b95506040880135945060608801359350608088013560ff8116811461152157600080fd5b9699959850939692959460a0840135945060c09093013592915050565b6000806040838503121561155157600080fd5b61155a836113c6565b9150611486602084016113c6565b600181811c9082168061157c57607f821691505b6020821081141561159d57634e487b7160e01b600052602260045260246000fd5b50919050565b634e487b7160e01b600052601160045260246000fd5b6000828210156115cb576115cb6115a3565b500390565b60008160001904831182151516156115ea576115ea6115a3565b500290565b60008261160c57634e487b7160e01b600052601260045260246000fd5b500490565b60008219821115611624576116246115a3565b500190565b60006020828403121561163b57600080fd5b5051919050565b600080835481600182811c91508083168061165e57607f831692505b602080841082141561167e57634e487b7160e01b86526022600452602486fd5b81801561169257600181146116a3576116d0565b60ff198616895284890196506116d0565b60008a81526020902060005b868110156116c85781548b8201529085019083016116af565b505084890196505b50949897505050505050505056feddf252ad1be2c89b69c2b068fc378daa952ba7f163c4a11628f55a4df523b3efa264697066735822122095db9495da80ec074085378c6095128516b94fc1ecffdf611f5b8abb8978f8ab64736f6c634300080a0033",
    "linkReferences": {}
  }
}